:0900000075505A7580000200A938
:10000B0002000F3274011201F474021201F4900217
:10001B003F7E00EE0E931201E3BE08F77E0379419B
:10002B00E734301201E309DEF774DF1201E37443A6
:10003B001201E374101201E374C01201F474101274
:10004B0001F49002477E00EE0E931201E3BE08F717
:10005B007E037944E734301201E309DEF774DF12D3
:10006B0001E374431201E374101201E3758CD27532
:10007B008AFFC0D0C38550F005F0E55195F04005DF
:10008B00D2B7020092C2B7D0D02095053095FD159E
:10009B00502097053097FD0550120131010EC2AF6C
:1000AB00758901758CD2758AFFD2AFD2A9D28C7AA1
:1000BB00027842760008DAFB1200C880FB12017E40
:1000CB0012016030D53D78CC1201447844120144C2
:1000DB00D2AF7548017549FF754AFFD54AFDD54921
:1000EB00F7D548F1C2AF12016030D51778CC1201A9
:1000FB004478BE120144120156F530120156F53107
:10010B00120111D2AF22E53054F0F53AE531540F1C
:10011B00453AC4F55175F00A8485F04375F00A84AD
:10012B0085F042F54122E55075F00A8485F046755D
:10013B00F00A8485F045F54422E87D08C313400599
:10014B001202108003120219DDF2227D081202271F
:10015B0013DDFAF822D2B00000C2B07EFADEFE7ECA
:10016B0032DEFED2B07E0FDEFE1202057E3CDEFEDC
:10017B00D2B0221201D01201C3C290C291C29275A9
:10018B00A03CD2921201BCC29275A00CD292120169
:10019B00BCC29275A001D2921201BCC292756028AA
:1001AB001201BCD560FA75A006D2921201BCC292A4
:1001BB0022756237D562FD227560FA756178D5615B
:1001CB00FDD560F722C292C290D29175A0FFD29258
:1001DB0020A7F2C292C29122C292D290C291D29225
:1001EB0031D0F5A031BCC29222C292C290C291D240
:1001FB009231D0F5A031BCC29222A2B04004D2D52C
:10020B008002C2D522C2B07E1EDEFED2B022C2B0A8
:10021B000000000000D2B07E1EDEFE22D2B0000035
:10022B00C2B00000D2B000000000000000A2B07EFF
:10023B0017DEFE22412E54454D503A20542E544584
:04024B004D503A20B8
:00000001FF 
